:1000000010C022C021C020C01FC01EC01DC01CC007
:100010001BC01AC019C018C017C016C015C014C024
:1000200013C011241FBECFE5D1E0DEBFCDBF10E06D
:10003000A0E6B0E0EAEEF0E002C005900D92A03735
:10004000B107D9F702D04FC0DBCF0F931F938FEFCB
:100050008ABB1BBAB898B99A81E088BB1FBC85E0FF
:100060008EBD12BC11E0B0E020E030E040E050E096
:1000700060E070E0A0E000E8BB2329F0B09B16C070
:10008000C198B0E014C0B09912C0112359F42CB536
:100090003DB50BBBB90184E0769567958A95E1F78C
:1000A000AB01A1E01DBC1CBCC19A10E0B1E0589BA3
:1000B00004C01BBA589A11E013C021153105E1F2B2
:1000C0008CB59DB584179507B8F2EA2FF0E0E05A99
:1000D000FF4F80818BBBAF5F460F571FA03161F68A
:0A00E00020E030E0C9CFF894FFCF14
:1000EA0080C182C384C586C788C98ACB8CFD8E002D
:00000001FF
